:020000040000FA
:100000000C9435000C945D000C945D000C945D0024
:100010000C945D000C945D000C945D000C945D00EC
:100020000C945D000C945D000C945D000C945D00DC
:100030000C945D000C945D000C945D000C945D00CC
:100040000C94DF030C945D000C94AD030C948703B7
:100050000C945D000C945D000C945D000C945D00AC
:100060000C945D000C945D00290411241FBECFEF99
:10007000D8E0DEBFCDBF24E0A6E5B1E001C01D920F
:10008000A239B207E1F711E0A0E0B1E0ECE5F1E15F
:1000900002C005900D92A635B107D9F710E0C5E36F
:1000A000D0E004C02197FE010E94A108C433D1070B
:1000B000C9F70E9465040C94AC080C94000090E011
:1000C00080E00895AF92BF92CF92DF92EF92FF92BD
:1000D0000F931F93CF93DF936C017B018B01040F70
:1000E000151FEB015E01AE18BF08C017D10759F00C
:1000F0006991D601ED91FC910190F081E02DC6014E
:100100000995892B79F7C501DF91CF911F910F9147
:10011000FF90EF90DF90CF90BF90AF900895FC01DB
:10012000538D448D252F30E0842F90E0821B930B5C
:10013000541710F0CF96089501970895FC01918D02
:10014000828D981761F0A28DAE0FBF2FB11D5D9605
:100150008C91928D9F5F9F73928F90E008958FEFA7
:100160009FEF0895FC01918D828D981731F0828D5B
:10017000E80FF11D858D90E008958FEF9FEF0895B2
:10018000FC01918D228D892F90E0805C9F4F821B16
:1001900091098F739927089586EE93E00E94C0001D
:1001A00021E0892B09F420E0822F089580E090E07F
:1001B000892B29F00E94CC0081110C940000089535
:1001C000FC01A48DA80FB92FB11DA35ABF4F2C91CC
:1001D000848D90E001968F739927848FA689B789C3
:1001E0002C93A089B1898C91837080648C93938DBA
:1001F000848D981306C00288F389E02D80818F7D5D
:1002000080830895EF92FF920F931F93CF93DF9314
:10021000EC0181E0888F9B8D8C8D98131AC0E88942
:10022000F989808185FF15C09FB7F894EE89FF8911
:100230006083E889F98980818370806480839FBFAF
:1002400081E090E0DF91CF911F910F91FF90EF90AF
:100250000895F62E0B8D10E00F5F1F4F0F731127BF
:10026000E02E8C8D8E110CC00FB607FCFACFE889FA
:10027000F989808185FFF5CFCE010E94E000F1CFA2
:10028000EB8DEC0FFD2FF11DE35AFF4FF0829FB76E
:10029000F8940B8FEA89FB8980818062CFCFCF935E
:1002A000DF93EC01888D8823B9F0AA89BB89E8899E
:1002B000F9898C9185FD03C0808186FD0DC00FB644
:1002C00007FCF7CF8C9185FFF2CF808185FFEDCFC2
:1002D000CE010E94E000E9CFDF91CF9108953FB7B2
:1002E000F8948091580190915901A0915A01B091D0
:1002F0005B0126B5A89B05C02F3F19F00196A11DF3
:10030000B11D3FBFBA2FA92F982F8827BC01CD015F
:10031000620F711D811D911D42E0660F771F881FBE
:10032000991F4A95D1F708950F931F93CF93DF93A9
:10033000209156012F5F322F37703093560120FFE6
:100340002BC020E831FD2064347009F02062205F6A
:10035000FC01EC01239600E011E06485662329F09E
:1003600070E0C8010E9479086F5F6187322F369F65
:10037000030E30E0311D1124311110C016826623A6
:1003800011F0615061873196EC17FD0731F7DF916D
:10039000CF911F910F91089520E0D4CF3150368333
:1003A000EECF87FF3FC05A9A5B9A001400145B9807
:1003B000001486FF39C05A9A5B9A001400145B98A7
:1003C000001485FF33C05A9A5B9A001400145B989E
:1003D000001484FF2DC05A9A5B9A001400145B9895
:1003E000001483FF27C05A9A5B9A001400145B988C
:1003F000001482FF21C05A9A5B9A001400145B9883
:10040000001481FF1BC05A9A5B9A001400145B9879
:10041000001480FF15C05A9A5B9A001400145B9870
:10042000001408955A98C0CF5A98C6CF5A98CCCF86
:100430005A98D2CF5A98D8CF5A98DECF5A98E4CF4C
:100440005A98EACFDC018D919C91009739F0DC013C
:10045000ED91FC910280F381E02D09940895AF9213
:10046000BF92CF92DF92EF92FF920F931F93CF93A1
:10047000DF93EB017C012FE0E20EF11CDC011F9603
:100480008D919C91009739F0DC01ED91FC910190E8
:10049000F081E02D0995CC84BD84AE8480E00E947B
:1004A000D10180E00E94D10180E00E94D10180E072
:1004B0000E94D1018C819D81181619060CF044C050
:1004C000E881F98188899989E80FF91F12812A2D1D
:1004D000129F010E10E0111D112401813B2D039F7D
:1004E000000E00E0011D1124D0802D2D3C2D239FF6
:1004F000020E20E0211D1124D22E8FEF0E94D10187
:100500008D2D0E94D101802F0E94D101812F0E9448
:10051000D10189859E81891B8E838A859F81891B54
:100520008F838B859885891B88872F858881998102
:10053000820F911D27FD9A95998388838C819D81D7
:1005400001979D838C83B6CF0A80DB81C02DD7FDB8
:100550006F9685E0D595C7958A95E1F78FEF0E9454
:10056000D10180E00E94D10180E00E94D10180E0B1
:100570000E94D101219790F7C701DF91CF911F9180
:100580000F91FF90EF90DF90CF90BF90AF900C94C1
:100590002202529A539A0F960C9422020F931F93A1
:1005A000CF93DF93CDB7DEB762970FB6F894DEBF77
:1005B0000FBECDBF8C01F901DC011C968C917A83B2
:1005C00069835C834B835E834D8390819D8791819A
:1005D0009E8792819F878130F1F4CE0101960E941F
:1005E000940183E0888B1A8A198AD801ED91FC91D5
:1005F0000484F585E02DBE016F5F7F4FC80109952A
:1006000062960FB6F894DEBF0FBECDBFDF91CF91DB
:100610001F910F9108951C861B861A8619861886CD
:100620001F82DFCF0F931F93CF93DF93CDB7DEB73A
:1006300062970FB6F894DEBF0FBECDBF8C01F901F3
:10064000DC011C968C917A8369835C834B835E8387
:100650004D8390819D8791819E8792819F87813074
:10066000E9F4CE0101960E949401188A1A8A198A27
:10067000D801ED91FC910484F585E02DBE016F5FFA
:100680007F4FC801099562960FB6F894DEBF0FBE82
:10069000CDBFDF91CF911F910F9108951C861B86CE
:1006A0001A86198618861F82E0CFFC0185859685FB
:1006B0000895CF93DF9300D000D000D0CDB7DEB740
:1006C000AB011C821D821E82DC01ED91FC91019028
:1006D000F081E02D19821A821B829E012F5F3F4F0D
:1006E000BE016C5F7F4F099526960FB6F894DEBF6A
:1006F0000FBECDBFDF91CF91089542E050E064E39B
:1007000071E086EE93E00C9462000E94A7081F92AD
:100710000F920FB60F9211242F933F934F935F9335
:100720006F937F938F939F93AF93BF93EF93FF93B9
:1007300086EE93E00E94E000FF91EF91BF91AF91B0
:100740009F918F917F916F915F914F913F912F91E9
:100750000F900FBE0F901F9018951F920F920FB61B
:100760000F9211242F938F939F93EF93FF93E09118
:10077000F603F091F7038081E091FC03F091FD0313
:1007800082FD1BC090818091FF038F5F8F7320914A
:100790000004821741F0E091FF03F0E0EA51FC4FC2
:1007A000958F8093FF03FF91EF919F918F912F91F0
:1007B0000F900FBE0F901F9018958081F4CF1F925D
:1007C0000F920FB60F9211242F933F938F939F9305
:1007D000AF93BF938091880190918901A0918A0184
:1007E000B0918B013091570123E0230F2D3758F53D
:1007F0000196A11DB11D209357018093880190930C
:100800008901A0938A01B0938B0180915801909146
:100810005901A0915A01B0915B010196A11DB11D32
:100820008093580190935901A0935A01B0935B01B2
:10083000BF91AF919F918F913F912F910F900FBEDC
:100840000F901F90189526E8230F0296A11DB11D49
:10085000D2CFE6EEF3E01382128288EE93E0A0E0BE
:10086000B0E084839583A683B78386E291E0918389
:10087000808385EC90E09587848784EC90E097876F
:10088000868780EC90E0918B808B81EC90E0938B5D
:10089000828B82EC90E0958B848B86EC90E0978B3A
:1008A000868B118E128E138E148EE3E8F4E08FEF98
:1008B000808312821182148613868FEF9FEFDC01F2
:1008C00087839087A187B2870895CF93DF9300D065
:1008D0001F92CDB7DEB7789484B5826084BD84B5AD
:1008E000816084BD85B5826085BD85B5816085BD2B
:1008F00080916E00816080936E00109281008091E3
:10090000810082608093810080918100816080936A
:100910008100809180008160809380008091B1008F
:1009200084608093B1008091B00081608093B000BA
:1009300080917A00846080937A0080917A0082604E
:1009400080937A0080917A00816080937A00809110
:100950007A00806880937A001092C10080916F01C4
:10096000811145C010926101109260018FEF809358
:100970006401809365018093660180936701809391
:1009800068018093690181E080936A0110926C0193
:1009900010926B011092630110926201809192019A
:1009A00090919301892B31F48EE591E0909393011E
:1009B00080939201E0915C01F0915D01309721F00C
:1009C0008EE591E0958384838EE591E090935D01BF
:1009D00080935C0184E191E090935F0180935E01DC
:1009E00010926E0110926D0181E080936F01529A16
:1009F000539A8DE691E00E94220288E991E090935B
:100A000061018093600184E590E090936C01809394
:100A10006B0188EC80938304E091F603F091F70377
:100A200082E08083E091F203F091F3031082E09181
:100A3000F403F091F5038FEC80831092FE03E091B4
:100A4000FA03F091FB0386E08083E091F803F091D4
:100A5000F903808180618083E091F803F091F903CC
:100A6000808188608083E091F803F091F9038081B0
:100A700080688083E091F803F091F90380818F7D95
:100A8000808342E150E067E371E086EE93E00E94EC
:100A900062000E947D03EE24E39434E5B32E86EEDB
:100AA00093E00E94C0001816190664F486EE93E0E5
:100AB0000E949E008C3301F5109287011092E4038E
:100AC000E09286018091E503882309F45FC1A4E9DF
:100AD000B2E0E8E9F1E085E5815009F443C06C91AA
:100AE00011965C91119712964C911297149640832F
:100AF000518362833396F0CF90918601992311F34D
:100B00008B33F1F40091E40310E040E150E070E039
:100B100060E087E791E00E94D306000F111F000FED
:100B2000111FF801EC56FD4F60837183828393831C
:100B30008091E4038F5F8093E40310928701C2CF1A
:100B40008E3329F410928601E092E503BBCF909199
:100B50008701E92FF0E0E958FE4F80839F5F909373
:100B60008701B0CFB092E403F090830480918604B3
:100B700090918704A0918804B0918904892B8A2BD5
:100B80008B2BD9F00E946F01009194011091950177
:100B90002091960130919701601B710B820B930B92
:100BA0000091860410918704209188043091890473
:100BB0006017710782079307C8F20E946F01609364
:100BC0009401709395018093960190939701E09121
:100BD0008E04F0918F04309759F040918A0450911F
:100BE0008B0460918C0470918D048F2D0995F82EE3
:100BF00000919201109193014F2C512C712C612C7A
:100C00000115110509F45EC0D8011C96AC901C9723
:100C100080918404909185048436910510F41C968B
:100C20001C92D801ED91FC918280938019821A82E6
:100C30001B82FF2089F1F8013696D12CC12C21911D
:100C4000222319F13280332001F130E050E040E0FE
:100C50002F5F3F4F4F4F5F4FC301B2010E94F60716
:100C60009B01AC01832D90E0B0E0A0E0BC01CD0180
:100C70006F5F7F4F8F4F9F4F0E94F607A1E0B0E05C
:100C8000AC0FBD1FAC0DBD1D8C93BFEFCB1ADB0AA3
:100C900083E0C816D10499F6D8011D964D915C9158
:100CA0001E9712966D917C919E012F5F3F4FC80158
:100CB000F4010995D8011C96AC921C9714960D91DD
:100CC0001C919ECF80919001909191019C012F5F8A
:100CD0003F4F309391012093900149970CF44AC003
:100CE0008FB7F894209188013091890140918A0151
:100CF00050918B018FBF80918C0190918D01A091BB
:100D00008E01B0918F01281B390B4A0B5B0B21F42C
:100D100021E030E040E050E080919001909191011D
:100D2000E8EEF3E08E9FB0018F9F700D9E9F700DD7
:100D30001124072E000C880B990B0E940608309393
:100D400085042093840410929101109290012FB792
:100D5000F8948091880190918901A0918A01B091C5
:100D60008B012FBF80938C0190938D01A0938E01F6
:100D7000B0938F011092E5034BE050E06AE471E01C
:100D800086EE93E00E9462000E947D0380E090E086
:100D9000892B09F484CE0E94CC00882309F47FCEED
:100DA0000E9400007CCEB0E0A0E0E9EDF6E00C94FB
:100DB00034085C016B017A016115710519F0FB01C2
:100DC00091838083E114F10451F0C7010297839766
:100DD00030F040E030E020E090E072C05E01E501DC
:100DE0002196F5011081812F90E00E94EA07892B5E
:100DF000A9F71D3201F52196F501118101E0E114F9
:100E0000F10409F4DAC0F0E1EF16F10409F082C050
:100E1000103359F488818F7D883509F076C01981A7
:100E200022960260F0E1EF2EF12C812C912CA12C66
:100E300088E0B82E8CC01B3221F4E5012296F50122
:100E4000118100E0DCCFEAE0EE16F10409F4BBC04A
:100E5000F0E1EF16F10409F06DC0E7CF78E0E72E7E
:100E6000F12C812C912CA12C60E1B62E70C03FE9B1
:100E7000310F3A3128F439EA332E80C021E09AC08C
:100E8000302F3170C114D10431F0222309F12197A0
:100E9000F601D183C08327FF21C060E070E080E0CD
:100EA00090E8311104C06FEF7FEF8FEF9FE722E2F0
:100EB00030E03093910420939004462F372F282F51
:100EC000642F732F822FCDB7DEB7E1E10C94500869
:100ED00001FF04C02297F601D183C083332341F080
:100EE00090958095709561957F4F8F4F9F4FE5CF7F
:100EF00097FFE3CF82E290E0909391048093900477
:100F00006FEF7FEF8FEF9FE7D8CF10E3E114F1048D
:100F100009F4A4CF28E0E216F10409F4A2CF0CF002
:100F200092CF812C912CA12CE0E4BE2E82E0E81619
:100F3000F10469F060E070E080E090E897010F2C28
:100F4000000C440B550B0E94060849015A0120E091
:100F500060E070E0CB0127010F2C000C66087708D9
:100F6000FE0150ED352E310E39E0331540F43FEBE4
:100F7000310F3A3108F07BCF49EC342E310E3E145C
:100F80001F040CF07DCF27FD15C086169706A80616
:100F9000B90678F0A30192010E94F607630D711D56
:100FA000811D911D61307105810520E8920708F4CB
:100FB00065CF2FEF21961081D3CF103309F42ACFBC
:100FC0002AE0E22EF12C9CEC892E982CA82C9CE097
:100FD000B92EBDCF91110C94F307803219F08950CE
:100FE0008550C8F70895992788270895DB018F93C6
:100FF0009F930E942808BF91AF91A29F800D911DE1
:10100000A39F900DB29F900D11240895A1E21A2E76
:10101000AA1BBB1BFD010DC0AA1FBB1FEE1FFF1F9C
:10102000A217B307E407F50720F0A21BB30BE40BEC
:10103000F50B661F771F881F991F1A9469F7609533
:101040007095809590959B01AC01BD01CF010895ED
:101050000E946A08A59F900DB49F900DA49F800DDB
:10106000911D112408952F923F924F925F926F929B
:101070007F928F929F92AF92BF92CF92DF92EF9228
:10108000FF920F931F93CF93DF93CDB7DEB7CA1BA9
:10109000DB0B0FB6F894DEBF0FBECDBF09942A88D4
:1010A000398848885F846E847D848C849B84AA847C
:1010B000B984C884DF80EE80FD800C811B81AA8109
:1010C000B981CE0FD11D0FB6F894DEBF0FBECDBFD4
:1010D000ED010895A29FB001B39FC001A39F700DC1
:1010E000811D1124911DB29F700D811D1124911D30
:1010F000089597FB072E16F4009407D077FD09D0CA
:101100000E948D0807FC05D03EF4909581959F4F75
:101110000895709561957F4F0895AA1BBB1B51E1FF
:1011200007C0AA1FBB1FA617B70710F0A61BB70B57
:10113000881F991F5A95A9F780959095BC01CD01FC
:101140000895EE0FFF1F0590F491E02D099481E0C2
:1011500090E0F8940C94AC08F894FFCF00000000E5
:10116000850385038503590355035F0000000000D4
:101170001203CE02C902590355035F002F0200007B
:101180000000020162008F004F01C0009E00B2000B
:101190000D0A003C41726475696E6F2069732052BC
:1011A000656164793E003C53656E64204E657874D9
:0211B0003E00FF
:107E0000112484B714BE81FFF0D085E080938100F7
:107E100082E08093C00088E18093C10086E0809377
:107E2000C20080E18093C4008EE0C9D0259A86E02C
:107E300020E33CEF91E0309385002093840096BBD3
:107E4000B09BFECF1D9AA8958150A9F7CC24DD24C4
:107E500088248394B5E0AB2EA1E19A2EF3E0BF2EE7
:107E6000A2D0813461F49FD0082FAFD0023811F036
:107E7000013811F484E001C083E08DD089C08234E0
:107E800011F484E103C0853419F485E0A6D080C0E4
:107E9000853579F488D0E82EFF2485D0082F10E0AE
:107EA000102F00270E291F29000F111F8ED06801E7
:107EB0006FC0863521F484E090D080E0DECF843638
:107EC00009F040C070D06FD0082F6DD080E0C81688
:107ED00080E7D80618F4F601B7BEE895C0E0D1E017
:107EE00062D089930C17E1F7F0E0CF16F0E7DF06D8
:107EF00018F0F601B7BEE89568D007B600FCFDCFD4
:107F0000A601A0E0B1E02C9130E011968C91119780
:107F100090E0982F8827822B932B1296FA010C0160
:107F200087BEE89511244E5F5F4FF1E0A038BF0790
:107F300051F7F601A7BEE89507B600FCFDCF97BE46
:107F4000E89526C08437B1F42ED02DD0F82E2BD052
:107F50003CD0F601EF2C8F010F5F1F4F84911BD097
:107F6000EA94F801C1F70894C11CD11CFA94CF0C13
:107F7000D11C0EC0853739F428D08EE10CD085E9AC
:107F80000AD08FE07ACF813511F488E018D01DD067
:107F900080E101D065CF982F8091C00085FFFCCF94
:107FA0009093C60008958091C00087FFFCCF809118
:107FB000C00084FD01C0A8958091C6000895E0E648
:107FC000F0E098E1908380830895EDDF803219F02E
:107FD00088E0F5DFFFCF84E1DECF1F93182FE3DFCA
:107FE0001150E9F7F2DF1F91089580E0E8DFEE27F6
:047FF000FF270994CA
:027FFE00040479
:00000001FF
