:100000000C9435000C945D000C945D000C945D0024
:100010000C945D000C945D000C945D000C945D00EC
:100020000C945D000C945D000C945D000C945D00DC
:100030000C945D000C945D000C945D000C945D00CC
:100040000C94D7030C945D000C94A5030C947F03CF
:100050000C945D000C945D000C945D000C945D00AC
:100060000C945D000C945D00210411241FBECFEFA1
:10007000D8E0DEBFCDBF22E0AAE4B1E001C01D920E
:10008000A735B207E1F711E0A0E0B1E0EEE6F1E15B
:1000900002C005900D92AA34B107D9F710E0C5E36C
:1000A000D0E004C02197FE010E94AA08C433D10702
:1000B000C9F70E945D040C94B5080C94000090E010
:1000C00080E00895AF92BF92CF92DF92EF92FF92BD
:1000D0000F931F93CF93DF936C017B018B01040F70
:1000E000151FEB015E01AE18BF08C017D10759F00C
:1000F0006991D601ED91FC910190F081E02DC6014E
:100100000995892B79F7C501DF91CF911F910F9147
:10011000FF90EF90DF90CF90BF90AF900895FC01DB
:10012000538D448D252F30E0842F90E0821B930B5C
:10013000541710F0CF96089501970895FC01918D02
:10014000828D981761F0A28DAE0FBF2FB11D5D9605
:100150008C91928D9F5F9F73928F90E008958FEFA7
:100160009FEF0895FC01918D828D981731F0828D5B
:10017000E80FF11D858D90E008958FEF9FEF0895B2
:10018000FC01918D228D892F90E0805C9F4F821B16
:1001900091098F73992708958BEA91E00E94C0001E
:1001A00021E0892B09F420E0822F089580E090E07F
:1001B000892B29F00E94CC0081110C940000089535
:1001C000FC01A48DA80FB92FB11DA35ABF4F2C91CC
:1001D000848D90E001968F739927848FA689B789C3
:1001E0002C93A089B1898C91837080648C93938DBA
:1001F000848D981306C00288F389E02D80818F7D5D
:1002000080830895EF92FF920F931F93CF93DF9314
:10021000EC0181E0888F9B8D8C8D98131AC0E88942
:10022000F989808185FF15C09FB7F894EE89FF8911
:100230006083E889F98980818370806480839FBFAF
:1002400081E090E0DF91CF911F910F91FF90EF90AF
:100250000895F62E0B8D10E00F5F1F4F0F731127BF
:10026000E02E8C8D8E110CC00FB607FCFACFE889FA
:10027000F989808185FFF5CFCE010E94E000F1CFA2
:10028000EB8DEC0FFD2FF11DE35AFF4FF0829FB76E
:10029000F8940B8FEA89FB8980818062CFCFCF935E
:1002A000DF93EC01888D8823B9F0AA89BB89E8899E
:1002B000F9898C9185FD03C0808186FD0DC00FB644
:1002C00007FCF7CF8C9185FFF2CF808185FFEDCFC2
:1002D000CE010E94E000E9CFDF91CF9108953FB7B2
:1002E000F89480914C0190914D01A0914E01B091F4
:1002F0004F0126B5A89B05C02F3F19F00196A11DFF
:10030000B11D3FBFBA2FA92F982F8827BC01CD015F
:10031000620F711D811D911D42E0660F771F881FBE
:10032000991F4A95D1F708950F931F93CF93DF93A9
:1003300020914A012F5F322F377030934A0120FFFE
:100340002BC020E831FD2064347009F02062205F6A
:10035000FC01EC01239600E011E06485662329F09E
:1003600070E0C8010E9482086F5F6187322F369F5C
:10037000030E30E0311D1124311110C016826623A6
:1003800011F0615061873196EC17FD0731F7DF916D
:10039000CF911F910F91089520E0D4CF3150368333
:1003A000EECF87FF3FC05A9A5B9A001400145B9807
:1003B000001486FF39C05A9A5B9A001400145B98A7
:1003C000001485FF33C05A9A5B9A001400145B989E
:1003D000001484FF2DC05A9A5B9A001400145B9895
:1003E000001483FF27C05A9A5B9A001400145B988C
:1003F000001482FF21C05A9A5B9A001400145B9883
:10040000001481FF1BC05A9A5B9A001400145B9879
:10041000001480FF15C05A9A5B9A001400145B9870
:10042000001408955A98C0CF5A98C6CF5A98CCCF86
:100430005A98D2CF5A98D8CF5A98DECF5A98E4CF4C
:100440005A98EACFDC018D919C91009739F0DC013C
:10045000ED91FC910280F381E02D09940895AF9213
:10046000BF92CF92DF92EF92FF920F931F93CF93A1
:10047000DF93EB017C012FE0E20EF11CDC011F9603
:100480008D919C91009739F0DC01ED91FC910190E8
:10049000F081E02D0995CE84BD84AC8480E00E947B
:1004A000D10180E00E94D10180E00E94D10180E072
:1004B0000E94D1018C819D81181619060CF044C050
:1004C000E881F98188899989E80FF91F10812A2D1F
:1004D000129F010E10E0111D112401813B2D039F7D
:1004E000000E00E0011D1124D2802D2D3C2D239FF4
:1004F000020E20E0211D1124D22E8FEF0E94D10187
:100500008D2D0E94D101802F0E94D101812F0E9448
:10051000D10189859E81891B8E838A859F81891B54
:100520008F838B859885891B88872F858881998102
:10053000820F911D27FD9A95998388838C819D81D7
:1005400001979D838C83B6CF0A80DB81C02DD7FDB8
:100550006F9685E0D595C7958A95E1F78FEF0E9454
:10056000D10180E00E94D10180E00E94D10180E0B1
:100570000E94D101219790F7C701DF91CF911F9180
:100580000F91FF90EF90DF90CF90BF90AF900C94C1
:100590002202529A539A0F960C9422020F931F93A1
:1005A000CF93DF93CDB7DEB762970FB6F894DEBF77
:1005B0000FBECDBF8C01F901DC011C968C917A83B2
:1005C00069835C834B835E834D8390819D8791819A
:1005D0009E8792819F878130F1F4CE0101960E941F
:1005E000940183E0888B1A8A198AD801ED91FC91D5
:1005F0000484F585E02DBE016F5F7F4FC80109952A
:1006000062960FB6F894DEBF0FBECDBFDF91CF91DB
:100610001F910F9108951C861B861A8619861886CD
:100620001F82DFCF0F931F93CF93DF93CDB7DEB73A
:1006300062970FB6F894DEBF0FBECDBF8C01F901F3
:10064000DC011C968C917A8369835C834B835E8387
:100650004D8390819D8791819E8792819F87813074
:10066000E9F4CE0101960E949401188A1A8A198A27
:10067000D801ED91FC910484F585E02DBE016F5FFA
:100680007F4FC801099562960FB6F894DEBF0FBE82
:10069000CDBFDF91CF911F910F9108951C861B86CE
:1006A0001A86198618861F82E0CFFC0185859685FB
:1006B0000895CF93DF9300D000D000D0CDB7DEB740
:1006C000AB011C821D821E82DC01ED91FC91019028
:1006D000F081E02D19821A821B829E012F5F3F4F0D
:1006E000BE016C5F7F4F099526960FB6F894DEBF6A
:1006F0000FBECDBFDF91CF9108950E94B0081F9229
:100700000F920FB60F9211242F933F934F935F9345
:100710006F937F938F939F93AF93BF93EF93FF93C9
:100720008BEA91E00E94E000FF91EF91BF91AF91C1
:100730009F918F917F916F915F914F913F912F91F9
:100740000F900FBE0F901F9018951F920F920FB62B
:100750000F9211242F938F939F93EF93FF93E09128
:10076000BB01F091BC018081E091C101F091C20117
:1007700082FD1BC090818091C4018F5F8F73209197
:10078000C501821741F0E091C401F0E0E555FE4F4C
:10079000958F8093C401FF91EF919F918F912F913D
:1007A0000F900FBE0F901F9018958081F4CF1F926D
:1007B0000F920FB60F9211242F933F938F939F9315
:1007C000AF93BF9380916D0190916E01A0916F01E5
:1007D000B091700130914B0123E0230F2D3758F574
:1007E0000196A11DB11D20934B0180936D01909343
:1007F0006E01A0936F01B093700180914C019091B4
:100800004D01A0914E01B0914F010196A11DB11D66
:1008100080934C0190934D01A0934E01B0934F01F2
:10082000BF91AF919F918F913F912F910F900FBEEC
:100830000F901F90189526E8230F0296A11DB11D59
:10084000D2CFEBEAF1E01382128288EE93E0A0E0CF
:10085000B0E084839583A683B78386E291E0918399
:10086000808385EC90E09587848784EC90E097877F
:10087000868780EC90E0918B808B81EC90E0938B6D
:10088000828B82EC90E0958B848B86EC90E0978B4A
:10089000868B118E128E138E148EE8E4F2E08FEFA9
:1008A000808312821182148613868FEF9FEFDC0102
:1008B00087839087A187B2870895CF93DF9300D075
:1008C00000D0CDB7DEB7789484B5826084BD84B59E
:1008D000816084BD85B5826085BD85B5816085BD3B
:1008E00080916E00816080936E00109281008091F3
:1008F000810082608093810080918100816080937B
:100900008100809180008160809380008091B1009F
:1009100084608093B1008091B00081608093B000CA
:1009200080917A00846080937A0080917A0082605E
:1009300080937A0080917A00816080937A00809120
:100940007A00806880937A001092C10080916301E0
:10095000811145C010925501109254018FEF809380
:1009600058018093590180935A0180935B018093D1
:100970005C0180935D0181E080935E0110926001D3
:1009800010925F01109257011092560180917701E9
:1009900090917801892B31F482E591E09093780170
:1009A00080937701E0915001F0915101309721F04F
:1009B00082E591E09583848382E591E090935101F3
:1009C0008093500184E191E0909353018093520110
:1009D000109262011092610181E080936301529A4A
:1009E000539A81E691E00E9422028DE991E0909372
:1009F00055018093540183E090E0909360018093CF
:100A00005F01E091BB01F091BC0182E08083E09145
:100A1000B701F091B8011082E091B901F091BA01EB
:100A20008FEC80831092C301E091BF01F091C0016F
:100A300086E08083E091BD01F091BE0180818061FC
:100A40008083E091BD01F091BE0180818860808348
:100A5000E091BD01F091BE01808180688083E091CA
:100A6000BD01F091BE0180818F7D808342E150E025
:100A700064E371E08BEA91E00E94620042E050E0A2
:100A800067E471E08BEA91E00E94620088EE282E14
:100A900083E0382E90E0A92E90E0B92E8BEA91E009
:100AA0000E94C000181619060CF041C08BEA91E0B4
:100AB0000E949E008C3329F410926C0191E0909377
:100AC0006B0190916B01992351F090916C01E92F8A
:100AD000F0E0E358FE4F80839F5F90936C018E336C
:100AE00031F510926B01A1E0A093AA0120916C0155
:100AF000AEE7B1E0ECE8F1E080E091E0980F92170A
:100B000020F48D918193892FF8CF80939C0140E14F
:100B100050E070E060E08CE891E00E94DC066093B9
:100B2000A6017093A7018093A8019093A9018091D9
:100B3000AA01882309F434C13091A6019091A7013C
:100B40002091A80120939D0190939E0130939F01D5
:100B5000F090480280914B0290914C02A0914D027E
:100B6000B0914E02892B8A2B8B2BD9F00E946F01FA
:100B70000091790110917A0120917B0130917C01E3
:100B8000601B710B820B930B00914B0210914C0276
:100B900020914D0230914E02601771078207930732
:100BA000C8F20E946F016093790170937A0180937B
:100BB0007B0190937C01E0915302F09154023097B5
:100BC00059F040914F025091500260915102709142
:100BD00052028F2D0995F82E00917701109178011E
:100BE0004F2C512C712C612C0115110509F45FC09B
:100BF000F801F485FC838091490290914A02843681
:100C0000910518F4D8011C961C92D801ED91FC9125
:100C10008280938019821A821B82FF2089F1F80159
:100C20003696D12CC12C2191222319F1E280EE209D
:100C300001F130E050E040E02F5F3F4F4F4F5F4FFA
:100C4000C301B2010E94FF079B01AC018E2D90E011
:100C5000B0E0A0E0BC01CD016F5F7F4F8F4F9F4F91
:100C60000E94FF07A1E0B0E0AC0FBD1FAC0DBD1DA1
:100C70008C93BFEFCB1ADB0A83E0C816D10499F638
:100C8000D8011D964D915C911E9712966D917C91A5
:100C90009E012F5F3F4FC801F4010995EC81D801F7
:100CA0001C96EC931C9714960D911C919DCF8091EE
:100CB0007501909176019C012F5F3F4F3093760133
:100CC0002093750149970CF448C08FB7F894209190
:100CD0006D0130916E0140916F01509170018FBF95
:100CE0008091710190917201A0917301B091740192
:100CF000281B390B4A0B5B0B21F421E030E040E06C
:100D000050E08091750190917601829DB001839DA4
:100D1000700D929D700D1124072E000C880B990BFD
:100D20000E940F0830934A022093490210927601E4
:100D3000109275012FB7F89480916D0190916E011A
:100D4000A0916F01B09170012FBF809371019093BA
:100D50007201A0937301B093740110919C011093E0
:100D60009B01ACE8B1E0EDE7F1E080E0181721F07D
:100D70009D9191938F5FFACF6CE38BEA91E00E9493
:100D80000201412F50E06DE771E08BEA91E00E9493
:100D900062006EE38BEA91E00E9402011092AA01C8
:100DA000A114B10409F47ACE0E94CC00882309F47E
:100DB00075CE0E94000072CEB0E0A0E0E2EEF6E058
:100DC0000C943D085C016B017A016115710519F005
:100DD000FB0191838083E114F10451F0C701029774
:100DE000839730F040E030E020E090E072C05E0198
:100DF000E5012196F5011081812F90E00E94F30713
:100E0000892BA9F71D3201F52196F501118101E029
:100E1000E114F10409F4DAC0F0E1EF16F10409F08D
:100E200082C0103359F488818F7D883509F076C0EF
:100E3000198122960260F0E1EF2EF12C812C912C89
:100E4000A12C88E0B82E8CC01B3221F4E50122963B
:100E5000F501118100E0DCCFEAE0EE16F10409F4BF
:100E6000BBC0F0E1EF16F10409F06DC0E7CF78E008
:100E7000E72EF12C812C912CA12C60E1B62E70C0B4
:100E80003FE9310F3A3128F439EA332E80C021E0AE
:100E90009AC0302F3170C114D10431F0222309F1EE
:100EA0002197F601D183C08327FF21C060E070E065
:100EB00080E090E8311104C06FEF7FEF8FEF9FE784
:100EC00022E230E03093560220935502462F372F0E
:100ED000282F642F732F822FCDB7DEB7E1E10C945A
:100EE000590801FF04C02297F601D183C083332340
:100EF00041F090958095709561957F4F8F4F9F4FF2
:100F0000E5CF97FFE3CF82E290E090935602809383
:100F100055026FEF7FEF8FEF9FE7D8CF10E3E1141B
:100F2000F10409F4A4CF28E0E216F10409F4A2CFF9
:100F30000CF092CF812C912CA12CE0E4BE2E82E00B
:100F4000E816F10469F060E070E080E090E8970155
:100F50000F2C000C440B550B0E940F0849015A013D
:100F600020E060E070E0CB0127010F2C000C660848
:100F70007708FE0150ED352E310E39E0331540F47F
:100F80003FEB310F3A3108F07BCF49EC342E310E74
:100F90003E141F040CF07DCF27FD15C08616970662
:100FA000A806B90678F0A30192010E94FF07630D1D
:100FB000711D811D911D61307105810520E8920729
:100FC00008F465CF2FEF21961081D3CF103309F4A9
:100FD0002ACF2AE0E22EF12C9CEC892E982CA82C0A
:100FE0009CE0B92EBDCF91110C94FC07803219F012
:100FF00089508550C8F70895992788270895DB01FF
:101000008F939F930E943108BF91AF91A29F800D53
:10101000911DA39F900DB29F900D11240895A1E200
:101020001A2EAA1BBB1BFD010DC0AA1FBB1FEE1F62
:10103000FF1FA217B307E407F50720F0A21BB30BAD
:10104000E40BF50B661F771F881F991F1A9469F729
:1010500060957095809590959B01AC01BD01CF0185
:1010600008950E947308A59F900DB49F900DA49FB2
:10107000800D911D112408952F923F924F925F92FF
:101080006F927F928F929F92AF92BF92CF92DF9298
:10109000EF92FF920F931F93CF93DF93CDB7DEB7FD
:1010A000CA1BDB0B0FB6F894DEBF0FBECDBF099491
:1010B0002A88398848885F846E847D848C849B84E8
:1010C000AA84B984C884DF80EE80FD800C811B81F6
:1010D000AA81B981CE0FD11D0FB6F894DEBF0FBE25
:1010E000CDBFED010895A29FB001B39FC001A39FA2
:1010F000700D811D1124911DB29F700D811D112451
:10110000911D089597FB072E16F4009407D077FDE4
:1011100009D00E94960807FC05D03EF49095819571
:101120009F4F0895709561957F4F0895AA1BBB1B33
:1011300051E107C0AA1FBB1FA617B70710F0A61BD7
:10114000B70B881F991F5A95A9F780959095BC01F8
:10115000CD010895EE0FFF1F0590F491E02D099445
:0E11600081E090E0F8940C94B508F894FFCF6D
:10116E00000000007D037D037D03590355035F00DE
:10117E00000000001203CE02C902590355035F009E
:10118E002F0200000000020162008F004F01C0001C
:10119E009E00B2003C41726475696E6F20697320C7
:0A11AE0052656164793E000D0A00ED
:00000001FF
